:020000040800F2
:10000000008000205D2B0008290900082B0900084A
:100010002D0900082F090008310900080000000020
:10002000000000000000000000000000330900088C
:1000300035090008000000003709000839090008E8
:10004000AD2B0008AD2B0008AD2B0008AD2B000830
:10005000AD2B0008AD2B0008AD2B0008AD2B000820
:10006000AD2B0008AD2B0008AD2B0008AD2B000810
:1000700041090008AD2B0008AD2B0008AD2B00088E
:10008000AD2B000800000000AD2B0008AD2B0008D0
:10009000AD2B0008AD2B0008AD2B0008AD2B0008E0
:1000A000AD2B0008AD2B0008AD2B0008AD2B0008D0
:1000B000AD2B0008AD2B0008AD2B0008AD2B0008C0
:1000C000AD2B0008AD2B0008AD2B0008AD2B0008B0
:1000D000AD2B000851090008AD2B0008AD2B00081E
:1000E00061090008AD2B0008AD2B0008AD2B0008FE
:1000F000AD2B0008AD2B0008AD2B00080000000060
:1001000000000000AD2B000800000000AD2B00082F
:10011000AD2B000800000000AD2B0008AD2B00083F
:10012000AD2B0008AD2B0008AD2B0008AD2B00084F
:10013000AD2B00080000000000000000AD2B0008FF
:10014000AD2B0008AD2B00080000000000000000EF
:10015000000000000000000000000000000000009F
:10016000000000000000000000000000AD2B0008AF
:10017000AD2B00080000000000000000000000009F
:1001800000000000AD2B000800000000000000008F
:10019000000000000000000000000000000000005F
:1001A0000000000000000000AD2B0008AD2B00088F
:1001B000AD2B0008AD2B0008AD2B0008000000009F
:1001C00000000000AD2B000800000000000000004F
:0801D000AD2B0008AD2B000867
:1001D80010B5054C237833B9044B13B10448AFF379
:1001E80000800123237010BD700000200000000073
:1001F800FC35000808B5034B1BB103490348AFF3AE
:10020800008008BD0000000074000020FC350008D4
:1002180053B94AB9002908BF00281CBF4FF0FF3165
:100228004FF0FF3000F074B9ADF1080C6DE904CE61
:1002380000F006F8DDF804E0DDE9022304B07047B9
:100248002DE9F047089D04468E46002B4DD18A4281
:10025800944669D9B2FA82F252B101FA02F3C2F1B4
:10026800200120FA01F10CFA02FC41EA030E944045
:100278004FEA1C48210CBEFBF8F61FFA8CF708FB66
:1002880016E341EA034306FB07F199420AD91CEB3E
:10029800030306F1FF3080F01F81994240F21C8170
:1002A800023E63445B1AA4B2B3FBF8F008FB1033B8
:1002B80044EA034400FB07F7A7420AD91CEB0404ED
:1002C80000F1FF3380F00A81A74240F207816444BD
:1002D800023840EA0640E41B00261DB1D440002342
:1002E800C5E900433146BDE8F0878B4209D9002DA6
:1002F80000F0EF800026C5E9000130463146BDE830
:10030800F087B3FA83F6002E4AD18B4202D3824299
:1003180000F2F980841A61EB030301209E46002D48
:10032800E0D0C5E9004EDDE702B9FFDEB2FA82F29D
:10033800002A40F09280A1EB0C014FEA1C471FFAFB
:100348008CFE0126200CB1FBF7F307FB131140EAE2
:1003580001410EFB03F0884208D91CEB010103F1AF
:10036800FF3802D2884200F2CB804346091AA4B271
:10037800B1FBF7F007FB101144EA01440EFB00FE45
:10038800A64508D91CEB040400F1FF3102D2A645AA
:1003980000F2BB800846A4EB0E0440EA03409CE749
:1003A800C6F12007B34022FA07FC4CEA030C20FAF6
:1003B80007F401FA06F31C43F9404FEA1C4900FA16
:1003C80006F3B1FBF9F8200C1FFA8CFE09FB181193
:1003D80040EA014108FB0EF0884202FA06F20BD906
:1003E8001CEB010108F1FF3A80F08880884240F256
:1003F8008580A8F102086144091AA4B2B1FBF9F09A
:1004080009FB101144EA014100FB0EFE8E4508D994
:100418001CEB010100F1FF346CD28E456AD9023819
:10042800614440EA0840A0FB0294A1EB0E01A142FE
:10043800C846A64656D353D05DB1B3EB080261EB6C
:100448000E0101FA07F722FA06F3F1401F43C5E946
:10045800007100263146BDE8F087C2F12003D8407C
:100468000CFA02FC21FA03F3914001434FEA1C47BE
:100478001FFA8CFEB3FBF7F007FB10360B0C43EAB0
:10048800064300FB0EF69E4204FA02F408D91CEB60
:10049800030300F1FF382FD29E422DD9023863445E
:1004A8009B1B89B2B3FBF7F607FB163341EA0341FE
:1004B80006FB0EF38B4208D91CEB010106F1FF384D
:1004C80016D28B4214D9023E6144C91A46EA004644
:1004D80038E72E46284605E70646E3E61846F8E6D6
:1004E8004B45A9D2B9EB020864EB0C0E0138A3E71F
:1004F8004646EAE7204694E74046D1E7D0467BE700
:10050800023B614432E7304609E76444023842E777
:10051800704700BF08B5034B5A681B6883F3088807
:10052800904708BD0040000810B514464FF47A7390
:1005380092B2044802F095F908B9204610BD00208F
:10054800FCE700BF98010020704772B6FEE700B5CF
:1005580095B03822002106A802F04AFB0023019337
:1005680002930393049305934FF4007000F0C8FBC3
:10057800022306934FF48072099240220A920D9347
:100588000E9304220F924B221092119312931393FD
:1005980006A800F0CDFC80B90F2301930323029332
:1005A800002303930493059304210DEB010000F04D
:1005B80077FF20B915B05DF804FBFFF7C6FFFFF71A
:1005C800C4FF000010B500F051FCFFF7C0FF00F0B9
:1005D80021F800F079F800F099F800F0EBF8FFF74F
:1005E800B3FF0A4802F07AFB002409E04FF40051F7
:1005F800074801F0DCFA1E2000F05AFC0134E4B28E
:10060800092CF3D9FFF786FFFEE700BF1436000870
:100618000008004830B58BB0002405940694079470
:1006280008940994264BDA6C42F00402DA64DA6C16
:1006380002F004020192019ADA6C42F02002DA64B4
:10064800DA6C02F020020292029ADA6C42F001029D
:10065800DA64DA6C02F001020392039ADA6C42F06F
:100668000202DA64DB6C03F002030493049B154D69
:1006780022464FF40051284601F094FA4FF40053F3
:100688000593012306930794089405A9284601F0C9
:100698009FF94FF4805305934FF4881306930794FA
:1006A80005A94FF0904001F093F922460321282034
:1006B80001F024FC282001F059FC0BB030BD00BF2C
:1006C800001002400008004800B583B00E4B9A6C39
:1006D80042F004029A649A6C02F004020092009AB2
:1006E8009A6C42F001029A649B6C03F00103019337
:1006F800019B002203210C2001F000FC0C2001F0DA
:1007080035FC03B05DF804FB0010024000B589B069
:10071800002304930593069307930193029303938D
:100728001748184A0260012242602022826040F67F
:100738003302C2604FF4807202614361836100F04A
:10074800BBF998B94FF48053049304A90C4800F0FE
:10075800F1F970B9002301930293039301A90848A2
:1007680000F084FA40B909B05DF804FBFFF7EDFE2C
:10077800E8E7FFF7EAFEEDE7FFF7E7FEF3E700BF7C
:100788008C000020002C01400268094B9A4200D0DE
:10079800704782B003F564431A6E42F400621A6629
:1007A8001B6E03F400630193019B02B0704700BF06
:1007B800002C014008B51748174B03604FF4E1338C
:1007C800436000238360C36003610C22426183613C
:1007D800C36103624362836202F0ECF870B90021DE
:1007E8000C4802F063F960B900210A4802F083F965
:1007F80050B9084802F03BF948B908BDFFF7A5FE13
:10080800EDE7FFF7A2FEEFE7FFF79FFEF1E7FFF73F
:100818009CFEF2E7980100200038014030B599B0FD
:1008280004460021139114911591169117914422B1
:1008380002A802F0DDF92268324B9A4201D019B0C1
:1008480030BD0123029302A800F050FF002850D1C8
:100858002D4B1A6E42F480421A661A6E02F48042D8
:100868000092009ADA6C42F00202DA64DB6C03F060
:1008780002030193019BC0231393022314930025C1
:10088800159516950723179313A9204801F0A0F88A
:100898001F48204B0360182343608560C560802390
:1008A800036145618561C561056201F0D1F918BB35
:1008B800174BE3679C621848184B03601923436081
:1008C800102383600023C360802202614361836137
:1008D800C361036201F0BCF988B90F4BA3679C623E
:1008E80000221146252001F009FB252001F03EFBDE
:1008F800A5E7FFF72AFEABE7FFF727FED8E7FFF7E4
:1009080024FEEAE7003801400010024000040048D5
:10091800D800002008000240380100201C000240D6
:10092800FEE7FEE7FEE7FEE7FEE770477047704721
:1009380008B500F0ABFA08BD08B5024801F069FA3D
:1009480008BD00BF3801002008B5024801F07AFB55
:1009580008BD00BF9801002008B54FF4805001F091
:1009680031F908BD00B583B00B4B1A6E42F0010295
:100978001A661A6E02F001020092009A9A6D42F00D
:1009880080529A659B6D03F080530193019B00F0A0
:100998003DFA03B05DF804FB0010024010B4036A8E
:1009A800046A24F001040462846924F0F00C4CEA1F
:1009B800021223F00A030B43826103625DF8044BC1
:1009C800704710B4046A24F0100404628469036A4E
:1009D80024F4704C4CEA023223F0A00343EA0113DA
:1009E800826103625DF8044B7047836823F4401307
:1009F80023F070030B4343F0070383607047000044
:100A080003682C4A90420ED0B0F1804F0BD0A2F56B
:100A18009432904207D002F58062904203D002F5EA
:100A28009632904203D123F070034A681343214A57
:100A380090421AD0B0F1804F17D0A2F5943290426C
:100A480013D002F5806290420FD002F596329042A0
:100A58000BD002F54062904207D002F580629042C6
:100A680003D002F58062904203D123F44073CA6830
:100A7800134323F080034A69134303608B68C362FE
:100A88000B6883620B4B98420FD003F500639842C2
:100A98000BD003F54063984207D003F58063984272
:100AA80003D003F58063984201D10B6903630123E6
:100AB80043617047002C014060B310B5044690F8BC
:100AC8003D3013B3022384F83D30214651F8040B1E
:100AD800FFF796FF012384F8483084F83E3084F805
:100AE8003F3084F8403084F8413084F8423084F84C
:100AF800433084F8443084F8453084F8463084F82C
:100B0800473084F83D30002010BD80F83C30FFF7B6
:100B18003BFED7E70120704710B4846824F47F4C6B
:100B280042EA03220A4342EA0C0282605DF8044B5F
:100B38007047000090F83C30012B00F08F8010B512
:100B48000446012380F83C30022380F83D300268D7
:100B58009068434B034093600B68702B55D031D895
:100B6800502B6CD00CD9602B2AD1CA6849682068F0
:100B7800FFF727FF60212068FFF737FF002035E0E7
:100B8800402B0AD1CA6849682068FFF707FF40214F
:100B98002068FFF72AFF002028E05BD8202B07D029
:100BA80003D9302B04D0012020E00BB1102B05D144
:100BB80019462068FFF719FF002017E0012015E00B
:100BC800012013E0B3F5005F2CD00BD9254A9342DE
:100BD800EED012D9244A9342EAD030329342E7D079
:100BE800012003E0B3F5805F36D10020012384F8AB
:100BF8003D30002384F83C3010BDB3F1101FD7D02E
:100C0800103A9342D4D00120F0E7CB684A6889684B
:100C18002068FFF781FF2268936843F077039360A9
:100C28000020E3E7CB684A6889682068FFF774FF0B
:100C38002268936843F4804393600020D6E7CA682B
:100C480049682068FFF7AAFE50212068FFF7CDFE0B
:100C58000020CBE70120C9E70120C7E70220704741
:100C68008800CEFF300010004000100090F83C30A3
:100C7800012B40D030B4012380F83C30022380F8A7
:100C88003D300268536894681C4DAA4203D005F5AC
:100C98000065AA4203D123F470034D682B4323F067
:100CA800007323F070030D682B4353600368134AE5
:100CB800934212D0B3F1804F0FD0A2F594329342F1
:100CC8000BD002F58062934207D002F59632934228
:100CD80003D002F54062934204D124F080048A686C
:100CE80014439C60012380F83D30002380F83C3099
:100CF800184630BC70470220704700BF002C0140E6
:100D0800002836D13E4B1B6803F4C063B3F5806FEF
:100D180008D03B4AD2F8803023F48073C2F8803080
:100D280000207047364AD2F8803023F48073C2F826
:100D38008030136823F4C06343F400731360314BAD
:100D48001B68322202FB03F32F4AA2FB03239B0CEE
:100D5800013300E0013B2A4A526912F4806F01D046
:100D6800002BF7D1264B5B6913F4806F44D1002028
:100D78007047B0F5007F08D0214A136823F4C06398
:100D880043F480631360002070471D4B1B6803F415
:100D9800C063B3F5806F08D0194AD2F8803043F4A5
:100DA8008073C2F8803000207047154AD2F880302E
:100DB80043F48073C2F88030136823F4C06343F4AB
:100DC800007313600F4B1B68322202FB03F30E4AB9
:100DD800A2FB03239B0C013300E0013B084A526944
:100DE80012F4806F01D0002BF7D1054B5B6913F427
:100DF800806F03D10020704703207047032070479D
:100E0800007000400800002083DE1B43024A9368FC
:100E180043F480439360704700700040104B1B6898
:100E28000BB90120704710B504464FF47A70B0FB37
:100E3800F3F30C4A1068B0FBF3F001F0A5F868B9B9
:100E48000F2C01D901200AE0002221464FF0FF3083
:100E580001F054F8044B1C60002000E0012010BD94
:100E680000000020080000200400002010B5032026
:100E780001F032F80F20FFF7D1FF10B1012420460E
:100E880010BD0446FFF76EFDF9E70000034A13683A
:100E9800034909680B441360704700BF280200200B
:100EA80000000020014B1868704700BF280200208E
:100EB80038B50446FFF7F6FF0546B4F1FF3F02D008
:100EC800044B1B681C44FFF7EDFF401BA042FAD3FC
:100ED80038BD00BF00000020124BDA6802F00302A0
:100EE800D868C0F30310431C032A11D00E48B0FB86
:100EF800F3F00C4BDB68C3F3062303FB00F0094B4C
:100F0800DB68C3F3416301335B00B0FBF3F0704768
:100F18000648B0FBF3F0034BDB68C3F3062303FB7F
:100F280000F0ECE7001002400024F4000048E8015B
:100F3800002800F0548270B582B00446036813F0AC
:100F4800010F37D0A44A936803F00C03D26802F06B
:100F580003020C2B23D0082B23D06368B3F5803F02
:100F68004ED0B3F5A02F51D09B4B1A6822F4803293
:100F78001A601A6822F480221A606368002B52D023
:100F8800FFF790FF0546944B1B6813F4003F11D1FF
:100F9800FFF788FF401B6428F5D9032028E2032ABD
:100FA800D9D18D4B1B6813F4003F03D06368002B25
:100FB80000F01782236813F0020F5DD0864A936809
:100FC80003F00C03D26802F003020C2B3AD0042B76
:100FD8003AD0E368002B75D07F4A136843F48073D6
:100FE8001360FFF75FFF05467B4B1B6813F4806FA8
:100FF8005FD1FFF757FF401B0228F5D90320F7E11F
:10100800754A136843F480331360B6E703F18043ED
:10101800A3F53C331A6842F480221A601A6842F435
:1010280080321A60A9E7FFF73DFF05466A4B1B6847
:1010380013F4003FBED0FFF735FF401B6428F5D9F5
:101048000320D5E1022AC2D1634B1B6813F4806FD9
:1010580003D0E368002B00F0C6815F4A536823F091
:10106800FE43216943EA016353605C4B1868FFF74C
:10107800D5FE002840F0B981236813F0080F4CD042
:1010880063699BB3544AD2F8943043F00103C2F821
:101098009430FFF707FF05464F4BD3F8943013F011
:1010A800020F3AD1FFF7FEFE401B0228F4D90320B5
:1010B8009EE1494A536823F0FE43216943EA0163EC
:1010C8005360D9E7444A136823F480731360FFF729
:1010D800E9FE0546404B1B6813F4806FCCD0FFF740
:1010E800E1FE401B0228F5D9032081E13A4AD2F8F3
:1010F800943023F00103C2F89430FFF7D3FE05467D
:10110800354BD3F8943013F0020F06D0FFF7CAFE20
:10111800401B0228F4D903206AE1236813F0040F66
:1011280000F081802C4B9B6D13F0805F36D12A4BE9
:101138009A6D42F080529A659B6D03F0805301933B
:10114800019B0125264B1B6813F4807F28D0A368D8
:10115800012B39D0052B45D01F4BD3F8902022F016
:101168000102C3F89020D3F8902022F00402C3F8BB
:101178009020A368002B43D0FFF794FE0646164B39
:10118800D3F8903013F0020F4CD1FFF78BFE801B81
:1011980041F288339842F2D9032029E10025D1E7AA
:1011A8000F4A136843F480731360FFF77BFE06460B
:1011B8000B4B1B6813F4807FC9D1FFF773FE801BAC
:1011C8000228F5D9032013E1034AD2F8903043F0FE
:1011D8000103C2F89030CCE7001002400400002060
:1011E800007000408A4BD3F8902042F00402C3F804
:1011F8009020D3F8902042F00102C3F89020B8E77D
:10120800FFF750FE0646824BD3F8903013F0020FDA
:1012180008D0FFF747FE801B41F288339842F2D985
:101228000320E5E0E5B9236813F0200F35D0A36962
:10123800E3B1774AD2F8983043F00103C2F8983006
:10124800FFF730FE0546724BD3F8983013F0020FC3
:1012580023D1FFF727FE401B0228F4D90320C7E05B
:101268006B4A936D23F080539365DCE7684AD2F8A4
:10127800983023F00103C2F89830FFF713FE0546B3
:10128800634BD3F8983013F0020F06D0FFF70AFE2D
:10129800401B0228F4D90320AAE0E369002B00F0E0
:1012A800A6805B4A926802F00C020C2A69D0022BD5
:1012B8001DD0574B1A6822F080721A60DA6822F043
:1012C8000302DA60DA6822F0887222F48032DA6087
:1012D800FFF7E8FD04464E4B1B6813F0007F4ED025
:1012E800FFF7E0FD001B0228F5D9032080E0484AFB
:1012F800136823F080731360FFF7D4FD0546444B51
:101308001B6813F0007F06D0FFF7CCFD401B0228B6
:10131800F5D903206CE03E4AD3683E491940236A58
:10132800606A013843EA0013A06A43EA0023206B8D
:101338004008013843EA4053606B4008013843EAEB
:101348004063E06A43EAC0630B43D360136843F029
:1013580080731360D36843F08073D360FFF7A2FDF6
:1013680004462B4B1B6813F0007F06D1FFF79AFD4C
:10137800001B0228F5D903203AE0002038E00020BD
:1013880036E0012B36D0224BDB6803F00301226ADA
:10139800914231D103F0F002616A0139B2EB011FC9
:1013A8002CD103F4FE42A16AB2EB012F28D103F03D
:1013B8007842E16AB2EBC16F24D103F4C001226B19
:1013C8005208013AB1EB425F1ED103F0C063626B71
:1013D8005208013AB3EB426F18D1002008E001200F
:1013E8007047012004E0012002E0012000E0002015
:1013F80002B070BD0120FBE70120F9E70120F7E703
:101408000120F5E70120F3E70120F1E70120EFE7EC
:10141800001002400C809F011E4B9B6803F00C03D8
:10142800042B33D01B4B9B6803F00C03082B2FD0E5
:10143800184B9B6803F00C030C2B01D0002070475D
:10144800144BDA6802F00302D868C0F30310431C97
:10145800032A11D01048B0FBF3F00E4BDB68C3F33E
:10146800062303FB00F00B4BDB68C3F34163013336
:101478005B00B0FBF3F070470848B0FBF3F0054B96
:10148800DB68C3F3062303FB00F0ECE70248704770
:1014980002487047001002400024F4000048E801A8
:1014A800002800F0E680F8B50C460546744B1B682A
:1014B80003F00F038B420BD2714A136823F00F031A
:1014C8000B431360136803F00F038B4240F0D38083
:1014D8002E6816F001065FD06B68032B2FD0022B05
:1014E8004DD0684B1B6813F4806F00F0C680FFF77F
:1014F80093FF654B98424DD9624A936823F0F003F5
:1015080043F08003936080265E4A936823F00303C8
:1015180069680B439360FFF7C5FC0746594B9B6806
:1015280003F00C036A68B3EB820F35D0FFF7BAFCFF
:10153800C01B41F288339842F0D9032078E0514B20
:101548001B6813F0007F01D1012071E0FFF7C4FC94
:101558004D4B98421AD94B4B9B6813F0F00F05D0AE
:101568002E6816F00206CFD0AB688BB9454A93684F
:1015780023F0F00343F0800393608026C4E7414BD7
:101588001B6813F4003FB2D1012051E00026BBE7ED
:101598000026B9E70026B7E72B6813F0020F48D0FA
:1015A80013F0040F04D0374A936843F4E063936060
:1015B8002B6813F0080F06D0324A936823F47C5343
:1015C80043F4E06393602F4A936823F0F003A9681B
:1015D8000B4393602A4B1B6803F00F03A34230D8D8
:1015E8002B6813F0040F06D0264A936823F4E063AF
:1015F800E9680B4393602B6813F0080F07D0214A62
:10160800936823F46053296943EAC1039360FFF7A1
:1016180003FF1C4B9B68C3F303131C4AD35C03F002
:101628001F03D8401A4B18601A4B1868FFF7F6FBCF
:10163800F8BD802ECED1134A936823F0F00393604F
:10164800C8E70F4A136823F00F0323431360FFF71B
:1016580029FC06460A4B1B6803F00F03A342BFD0C0
:10166800FFF720FC801B41F288339842F2D903200F
:10167800DEE7012070470120DAE70120D8E700BF44
:10168800002002400010024000B4C4045036000894
:101698000800002004000020014B1868704700BFB4
:1016A8000800002008B5FFF7F7FF054B9B68C3F358
:1016B8000223044AD35C03F01F03D84008BD00BFCF
:1016C800001002406036000808B5FFF7E5FF054B3B
:1016D8009B68C3F3C223044AD35C03F01F03D840BA
:1016E80008BD00BF0010024060360008F0B583B0A6
:1016F8000446036813F4002F69D0AE4B9B6D13F0BA
:10170800805F1ED1AB4B9A6D42F080529A659B6DFB
:1017180003F080530193019B0126A74A136843F401
:1017280080731360FFF7BEFB0546A34B1B6813F4D9
:10173800807F08D1FFF7B6FB401B0228F5D90325A7
:1017480002E00026E9E7002545BB9A4BD3F8903024
:1017580013F4407315D0226C9A4212D0954AD2F8ED
:10176800903023F44073D2F8901041F48031C2F8DD
:101778009010D2F8901021F48031C2F89010C2F87D
:10178800903013F0010F10D145B98A4AD2F8903041
:1017980023F44073216C0B43C2F89030C6B1854ADC
:1017A800936D23F08053936512E0FFF77BFB0746A8
:1017B800804BD3F8903013F0020FE5D1FFF772FB9E
:1017C800C01B41F288339842F2D90325DCE7002593
:1017D800236813F0010F08D0764AD2F8883023F036
:1017E800030361680B43C2F88830236813F0020FC3
:1017F80008D0704AD2F8883023F00C03A1680B4354
:10180800C2F88830236813F0040F08D0694AD2F868
:10181800883023F03003E1680B43C2F8883023682E
:1018280013F0080F08D0634AD2F8883023F0C003B9
:1018380021690B43C2F88830236813F0200F08D0C1
:101848005C4AD2F8883023F4406361690B43C2F8DC
:101858008830236813F0400F08D0564AD2F88830F1
:1018680023F44053A1690B43C2F88830236813F06E
:10187800800F08D04F4AD2F8883023F44043E169FA
:101888000B43C2F88830236813F4807F08D0494A94
:10189800D2F8883023F44033216A0B43C2F88830E9
:1018A800236813F4007F08D0424AD2F8883023F422
:1018B8004023616A0B43C2F88830236813F4806FB1
:1018C8000CD03C4AD2F8883023F44013A16A0B4369
:1018D800C2F88830A36AB3F5801F57D0236813F481
:1018E800006F0CD0334AD2F8883023F44003E16A01
:1018F8000B43C2F88830E36AB3F5800F4BD02368F6
:1019080013F4805F0CD02B4AD2F8883023F0407350
:10191800216B0B43C2F88830236BB3F1807F3FD033
:10192800236813F4005F0CD0224AD2F8883023F0E1
:101938004063616B0B43C2F88830636BB3F1006F8F
:1019480033D0236813F4804F0CD01A4AD2F8883069
:1019580023F04063A16B0B43C2F88830A36BB3F14B
:10196800006F2BD0236813F4004F0CD0114AD2F823
:10197800883023F04053E16B0B43C2F88830E36BA7
:10198800B3F1805F1FD0284603B0F0BDD36843F49D
:101998008013D360A2E7D36843F48013D360AEE723
:1019A800D36843F48013D360BAE7D36843F4801351
:1019B800D360C6E70010024000700040D36843F4CB
:1019C8008013D360CEE7D36843F48033D360DAE77B
:1019D800F0B583B0002362E085685E000324B4405C
:1019E80025EA0405CC68B4402C438460446824EAA2
:1019F8000C0C4C68C4F300149C4044EA0C0444608A
:101A08005EE0DD08083550F8256003F007044FEA6A
:101A1800840C0F2404FA0CF426EA040E0C6904FA68
:101A28000CF444EA0E0440F8254060E0052400E088
:101A3800002404FA0EF42C430CF1020C554D45F821
:101A48002C40554CA568D44325EA02064F6817F484
:101A5800801F01D042EA05064F4DAE60ED6804EAEA
:101A680005064F6817F4001F01D042EA05064A4DE3
:101A7800EE606D6804EA05064F6817F4003F01D070
:101A880042EA0506444D6E602D682C404E6816F4F7
:101A9800803F01D042EA05043F4A146001330A68D6
:101AA80032FA03F474D04FF0010C0CFA03FC1CEA70
:101AB8000202F3D04C6804F00304013C012C8BD9DA
:101AC8004C6804F00304032C0CD0C4685D004FF08C
:101AD800030C0CFA05FC24EA0C0C8C68AC4044EAB4
:101AE8000C04C4604C6804F00304022C89D0046818
:101AF8004FEA430E4FF0030C0CFA0EFC24EA0C0CD0
:101B08004C6804F0030404FA0EF444EA0C0404607C
:101B18004C6814F4403FC1D0204C256E45F00105B7
:101B28002566246E04F001040194019C4FEA930C8D
:101B38000CF10205174C54F8255003F003044FEA42
:101B4800840E0F2404FA0EF425EA0405B0F1904F30
:101B58003FF46EAF124CA04212D004F58064A0424C
:101B680010D004F58064A0420ED004F58064A04231
:101B78000CD004F58064A0423FF458AF062458E71F
:101B8800012456E7022454E7032452E7042450E7CB
:101B980003B0F0BD00000140000401400010024005
:101BA800000400480AB18161704781627047436947
:101BB80001EA030221EA030141EA02418161704717
:101BC8007047000008B5054B5B69034200D108BDAA
:101BD800024B5861FFF7F4FFF9E700BF000401402A
:101BE80003680C4A934213D80B49DBB2083B0B4AF3
:101BF800A2FB0323426C22F003020A448264084ACF
:101C0800C264C3F30413012202FA03F303657047A5
:101C18000449EAE70704024000080240CDCCCCCCD6
:101C280080080240200802400379074A1A449200BB
:101C38004265064A8265013B03F01F03012202FA4E
:101C480003F3C365704700BF3F820010400902409C
:101C580000285BD010B5044601682D4B99423DD849
:101C68002C4B0B442C4AA2FB03231B099B00436407
:101C78002A4B0364022384F825300A6822F4FF42C1
:101C880022F07002A368E068034320690343606997
:101C98000343A0690343E0690343206A03431343F2
:101CA8000B602046FFF79CFFA368B3F5804F20D058
:101CB800A36C22791A60E36C226D5A606368013B59
:101CC800032B19D900236365A365E3650020E0634E
:101CD800012384F8253084F8240010BD104B0B44F0
:101CE8000D4AA2FB03231B099B0043640D4B0364AD
:101CF800C0E700236360DBE72046FFF795FF636DCD
:101D080000221A60A36DE26D5A60DFE70120704778
:101D180007040240F8FFFDBFCDCCCCCC0000024048
:101D2800F8FBFDBF00040240034690F82520D2B21C
:101D3800022A09D00422C2630120012283F8252047
:101D4800002283F82420704701680A6822F00E02F6
:101D58000A60816C0A6822F480720A6001680A6865
:101D680022F001020A60426C02F01F01006C01229D
:101D78008A404260DA6C196D51605A6D42B111683F
:101D880021F4807111609A6DD96D51600020D4E7FB
:101D98000020D2E708B590F82530DBB2022B09D035
:101DA8000423C363012380F82530002280F824200F
:101DB800184608BD0268136823F00E031360026812
:101DC800136823F001031360826C136823F4807393
:101DD8001360436C03F01F02016C012393404B60B6
:101DE800C36C026D5A60436D33B11A6822F4807275
:101DF8001A60836DC26D5A60012380F82530002374
:101E080080F82430836B13B198470020D1E7002075
:101E1800CFE738B5036C196804682568436C03F08C
:101E28001F0304229A400A4215D015F0040F12D05D
:101E3800236813F0200F03D1236823F004032360E1
:101E4800436C03F01F02016C042393404B60036B47
:101E580003B1984738BD02229A400A421CD015F0B7
:101E6800020F19D0236813F0200F06D1236823F03E
:101E78000A032360012380F82530436C03F01F0216
:101E8800016C022393404B60002380F82430C36A1E
:101E9800002BDFD09847DDE7082202FA03F30B4254
:101EA800D8D015F0080FD5D0236823F00E0323608F
:101EB800436C03F01F03016C012202FA03F34B6029
:101EC800C26380F82520002380F82430436B002B60
:101ED800C0D09847BEE70000074AD36823F4E06300
:101EE8001B041B0C000200F4E060034343F0BF63D3
:101EF80043F40033D360704700ED00E000B5194BA0
:101F0800DB68C3F30223C3F1070CBCF1040F28BF3D
:101F18004FF0040C03F1040EBEF1060F18D9033B71
:101F28004FF0FF3E0EFA0CFC21EA0C0199400EFA24
:101F380003F322EA0303194300280BDB0901C9B2A2
:101F480000F1604000F5614080F800135DF804FB83
:101F58000023E5E700F00F000901C9B2024B19544C
:101F6800F4E700BF00ED00E014ED00E0002807DB17
:101F780000F01F02400901239340024A42F8203032
:101F8800704700BF00E100E00138B0F1807F0BD25C
:101F98004FF0E0235861054AF02182F82310002011
:101FA800986107221A6170470120704700ED00E030
:101FB800026852E8003F23F4907342E80031002998
:101FC800F6D1026802F1080353E8003F23F080537A
:101FD80023F00103083242E800310029F1D1C36E31
:101FE800012B06D02023C0F888300023C36603677E
:101FF8007047026852E8003F23F0100342E80031BE
:102008000029F6D1EEE7704708B5026852E8003FAC
:1020180023F0400342E800310029F6D12023C0F81C
:10202800843000234367FFF7EEFF08BD704708B50B
:10203800806A0023A0F85E30A0F85630FFF7F6FF5C
:1020480008BD704770B504460168CB6908688D689B
:1020580040F60F021A4008D113F0200F05D010F0F7
:10206800200F34D115F0805F31D12AB1954A2A402A
:1020780033D1954E304230D1E26E012A00F0C38050
:1020880013F4801F03D015F4800F40F05B8113F028
:10209800800F07D010F0800F40F05B8115F4000F1F
:1020A80040F0578113F0400F03D010F0400F40F07C
:1020B800578113F4000F03D010F0804F40F0548183
:1020C80013F0807F02D00028C0F2528170BD236FC8
:1020D800002BFBD020469847F8E713F0010F09D0F2
:1020E80010F4807F06D001260E62D4F88C1031439C
:1020F800C4F88C1013F0020F0BD015F0010F08D0A4
:10210800216802260E62D4F88C1041F00401C4F84C
:102118008C1013F0040F0BD015F0010F08D02168B4
:1021280004260E62D4F88C1041F00201C4F88C1019
:1021380013F0080F0BD010F0200F00D13AB122682D
:1021480008211162D4F88C200A43C4F88C2013F4B7
:10215800006F0CD010F0806F09D022684FF4006136
:102168001162D4F88C2042F02002C4F88C20D4F8F4
:102178008C20002AAAD013F0200F09D010F0200FCD
:1021880002D115F0805F03D0236F0BB1204698472A
:10219800D4F88C2023689B6813F0400F02D112F00A
:1021A800280F29D02046FFF703FF23689B6813F008
:1021B800400F1DD0226802F1080353E8003F23F0C6
:1021C8004003083242E800310029F3D1E36F5BB1E4
:1021D8003E4A9A63E06FFFF7DDFD00283FF476AFD3
:1021E800E06F836B984771E72046FFF71FFF6DE7A5
:1021F8002046FFF71BFF69E72046FFF717FF00237C
:10220800C4F88C3062E713F0100F3FF439AF10F0C8
:10221800100F3FF435AF10230B6223689B6813F04F
:10222800400F55D0E26F13685B689BB2002B3FF4F8
:102238004DAFB4F85C1099427FF648AFA4F85E3011
:1022480013681B6813F0200F31D1226852E8003F51
:1022580023F4807342E800310029F6D1226802F1A4
:10226800080353E8003F23F00103083242E8003135
:102278000029F3D1226802F1080353E8003F23F054
:102288004003083242E800310029F3D12023C4F882
:1022980088300023E366226852E8003F23F01003E9
:1022A80042E800310029F6D1E06FFFF73DFDB4F8B0
:1022B8005C10B4F85E309BB2C91A89B22046FFF7A9
:1022C800C0FE03E7010000102001000437200008C9
:1022D800B4F85C10B4F85E309BB2C91A89B2B4F88D
:1022E8005E309BB2002B3FF4F1AE00293FF4EEAE16
:1022F800226852E8003F23F4907342E80030002837
:10230800F6D1226802F1080353E8003F23F0805316
:1023180023F00103083242E800300028F1D12023DD
:10232800C4F888300023E3662367226852E8003F38
:1023380023F0100342E800300028F6D12046FFF7CA
:1023480080FEC3E64FF480130B62204600F08CFB3E
:10235800BCE6636F002B3FF4B9AE20469847B5E65C
:102368002046FFF751FEB1E6204600F07FFBADE6C0
:10237800204600F07AFBA9E670B504460168836838
:102388000269134342691343C269134308688B4ABD
:10239800024013430B602268536823F44053E168FA
:1023A8000B435360A1692268854B9A4201D0236A86
:1023B8001943936823F06E4323F430630B4393600F
:1023C8002268D36A23F00F03616A0B43D362236840
:1023D8007C4A934223D07C4A934234D07B4A93422E
:1023E8004AD07B4A934259D0754A934268D010220A
:1023F80073498B4200F09580E069B0F5004F00F01A
:10240800D280082A00F24F81DFE812F0120134016D
:1024180010014D0137014D014D014D013A0102F501
:102428005842D2F8882002F00302032A09D8DFE8CC
:1024380002F002045C060122DAE70422D8E7082247
:10244800D6E71022D4E702F5E632D2F8882002F067
:102458000C020C2A0ED8DFE802F0070D0D0D090D4D
:102468000D0D4A0D0D0D0B000022C1E70422BFE738
:102478000822BDE71022BBE702F5E432D2F8882033
:1024880002F03002202A34D004D8A2B3102A34D162
:102498000422ADE7302A32D10822A9E702F5E23258
:1024A800D2F8882002F0C002802A2AD004D852B379
:1024B800402A2AD104229BE7C02A28D1082297E77C
:1024C80002F5C832D2F8882002F44062B2F5006FF3
:1024D8001FD005D8FAB1B2F5806F1ED1042287E764
:1024E800B2F5406F1BD1082282E7022280E7022260
:1024F8007EE702227CE700227AE7102278E71022A2
:1025080076E7022274E7002272E7102270E71022B1
:102518006EE702226CE700226AE7102268E71022C1
:1025280066E7082A00F2AF80DFE802F008AD3BADAD
:1025380038ADADAD05004FF4004004E0FFF7B2F848
:10254800002800F0A280626A224B33F81220B0FB08
:10255800F2F3656805EB4501994200F29880B3EB08
:10256800053F00F29680002633463146FDF750FEBF
:10257800090241EA106100026B08C0182A46334676
:1025880041F10001FDF744FEA0F54072124B9A425A
:1025980000F281802368D860304662E0FEF73CFF95
:1025A800CEE70E48CFE7082A77D8DFE802F01939D6
:1025B80005763C7676761D00084815E0F369FFCF6E
:1025C80000800040003801400044004000480040BE
:1025D800004C004028360008FFFC0F000024F400DF
:1025E800FFF760F800285AD0626A324B33F812308D
:1025F800B0FBF3F06268530803EB4000B0FBF2F065
:10260800A0F110024FF6EF739A424AD883B223F032
:102618000F03C0F3420018432368D860002020E06D
:10262800FFF752F8DEE7FEF7F7FEDBE7224803E0A4
:10263800FFF738F8002838D0626A1E4B33F812309A
:10264800B0FBF3F0636800EB5300B0FBF3F0A0F1CC
:1026580010024FF6EF739A4229D8236880B2D860E7
:1026680000200123A4F86A30A4F868300023236707
:10267800636770BDFFF728F8DCE7FEF7CDFED9E702
:102688004FF40040D8E70120EBE70020E9E70120FC
:10269800E7E70120E5E70120E3E70120E1E7002083
:1026A800DFE70120DDE70120DBE70020D9E7012093
:1026B800D7E700BF283600080024F400836A13F027
:1026C800010F06D00268536823F40033C16A0B4334
:1026D8005360836A13F0020F06D00268536823F42C
:1026E8008033016B0B435360836A13F0040F06D0E9
:1026F8000268536823F48023416B0B435360836A59
:1027080013F0080F06D00268536823F40043816B66
:102718000B435360836A13F0100F06D00268936866
:1027280023F48053C16B0B439360836A13F0200F2B
:1027380006D00268936823F40053016C0B4393603E
:10274800836A13F0400F0AD00268536823F4801399
:10275800416C0B435360436CB3F5801F0BD0836A05
:1027680013F0800F06D00268536823F40023C16C6D
:102778000B43536070470268536823F4C003816CAD
:102788000B435360EBE72DE9F84305460F46164621
:102798009946DDF820802C68E46937EA04030CBF09
:1027A8004FF0010C4FF0000CB44557D1B8F1FF3F82
:1027B800F1D0FEF777FBA0EB090040452FD8B8F120
:1027C800000F2CD02B681A6812F0040FE3D0DA69D6
:1027D80012F4006FDFD04FF400621A622A6852E8E0
:1027E800003F23F4D07342E800310029F6D12A686B
:1027F80002F1080353E8003F23F00103083242E8DE
:1028080000310029F3D12023C5F88430C5F8883079
:10281800C5F88C30002385F8803003201FE02A6833
:1028280052E8003F23F4D07342E800310029F6D182
:102838002A6802F1080353E8003F23F00103083235
:1028480042E800310029F3D12023C5F88430C5F8C7
:102858008830002385F88030032000E00020BDE8A0
:10286800F8832DE9F04182B01E46D0F88430202B41
:1028780058D104460D469046002957D0002A57D013
:1028880090F88030012B55D0012380F88030002348
:10289800C0F88C302123C0F88430FEF703FB0746CC
:1028A800A4F85480A4F85680A368B3F5805F05D0D7
:1028B8004FF00008002384F8803014E0236913B136
:1028C8004FF00008F6E7A8460025F3E738F8023B82
:1028D8002268C3F308039362B4F8562092B2013A0F
:1028E80092B2A4F85620B4F856309BB273B1009651
:1028F8003B46002280212046FFF745FFE0B9002D26
:10290800E4D015F8012B23689A62E5E700963B4668
:10291800002240212046FFF736FF78B92023C4F86B
:10292800843000E0022002B0BDE8F0810120FAE71F
:102938000120F8E70220F6E70320F4E70320F2E796
:1029480030B583B004460023C0F88C30FEF7AAFAED
:1029580005462268126812F0080F0FD123681B6819
:1029680013F0040F18D12023C4F88430C4F8883039
:102978000020E06684F8800003B030BD6FF07E432D
:102988000093034600224FF400112046FFF7FBFE98
:102998000028E3D00320EFE76FF07E4300932B4637
:1029A80000224FF480012046FFF7EDFE0028DAD020
:1029B8000320E1E778B310B50446D0F884300BB3B0
:1029C8002423C4F884302268136823F001031360B9
:1029D8002046FFF7D1FC012813D0A36ABBB92268AF
:1029E800536823F4904353602268936823F02A03C2
:1029F80093602268136843F0010313602046FFF7D1
:102A08009FFF10BD80F88030FDF708FFD8E720460B
:102A1800FFF754FEE3E7012070470000436E2BB92F
:102A28000123A0F86A30A0F86830704730B4036812
:102A38009A68C2F342629968490F094D6B5CDB00E2
:102A4800084C615C93FBF1F3A0F86A30AB5CDB00E7
:102A5800A25C93FBF2F3A0F8683030BC704700BF6B
:102A6800483600084036000870477047704790F8AD
:102A78008030012B18D0012380F880302423C0F83F
:102A8800843003681A68196821F00101196022F07E
:102A980000520023436601680A602022C0F884209F
:102AA80080F88030184670470220704738B590F893
:102AB8008030012B1DD00446012380F88030242368
:102AC800C0F8843003681D681A6822F001021A6091
:102AD8000268936823F0604319439160FFF79EFFF3
:102AE80023681D602023C4F88430002084F8800007
:102AF80038BD0220FCE738B590F88030012B1DD096
:102B08000446012380F880302423C0F88430036809
:102B18001D681A6822F001021A600268936823F09F
:102B2800606319439160FFF779FF23681D602023D4
:102B3800C4F88430002084F8800038BD0220FCE707
:102B4800034AD2F8883043F47003C2F888307047DB
:102B580000ED00E00D4885460D480E490E4A002359
:102B680002E0D458C4500433C4188C42F9D30B4A39
:102B78000B4C002301E013600432A242FBD3FFF7A1
:102B8800DFFF00F011F8FDF71DFDFEE700800020D3
:102B98000000002070000020DC36000870000020D3
:102BA80040020020FEE7000070B50D4D0D4C641B7F
:102BB800A4100026A64209D10B4D0C4C00F01AFDBA
:102BC800641BA4100026A64205D170BD55F8043B2D
:102BD80098470136EEE755F8043B98470136F2E787
:102BE800D4360008D4360008D4360008D836000891
:102BF80002440346934200D1704703F8011BF9E7EA
:102C080070B50E46054618B183690BB900F048FA4D
:102C1800AB69AC6813B9284600F042FA2C4B9C42C9
:102C280020D16C68636EDB0705D4A389980502D4AC
:102C3800A06D00F0D3FAA38919071DD52369DBB16C
:102C4800013EA36816F8011F013BA36039BB002BA6
:102C580038DA22460A21284600F048F8013011D017
:102C68000A2511E01B4B9C4201D1AC68DAE71A4BEC
:102C78009C4208BFEC68D5E72146284600F088F852
:102C88000028DDD04FF0FF35636EDA0705D4A3893D
:102C98009B0502D4A06D00F0A2FA284670BD002B57
:102CA80004DAA2699A4206DC0A2904D023685A1C6D
:102CB80022601970C5E72246284600F017F801304F
:102CC800BFD1DFE723680A255A1C22601D70DBE7A5
:102CD8008C360008AC3600086C360008024B0146FA
:102CE8001868FFF78DBF00BF0C000020F8B50E462E
:102CF8001446054618B183690BB900F0D1F9214B88
:102D08009C422BD16C68A369A360A3891A072FD5AD
:102D180023696BB323692068C01A6369F6B28342DA
:102D2800374604DC2146284600F026F930BBA36864
:102D3800013BA36023685A1C22601E70636901303E
:102D4800834204D0A389DB0706D50A2E04D1214685
:102D5800284600F011F988B93846F8BD0A4B9C425C
:102D680001D1AC68CFE7094B9C4208BFEC68CAE7C1
:102D78002146284600F00CF80028CBD04FF0FF374A
:102D8800EAE700BF8C360008AC3600086C3600084D
:102D9800324B70B51D6806460C4625B1AB6913B9B0
:102DA800284600F07DF92E4B9C420FD16C68A38910
:102DB800B4F90C2019072CD4DD0611D4092333608B
:102DC80042F04003A3814FF0FF303EE0254B9C4288
:102DD80001D1AC68EBE7244B9C4208BFEC68E6E7FE
:102DE800580712D5616B41B104F14403994202D0EE
:102DF800304600F05BFA00236363A38923F02403C1
:102E0800A3810023636023692360A38943F0080337
:102E1800A38123694BB9A38903F42073B3F5007F19
:102E280003D02146304600F001FAA089B4F90C20FD
:102E380010F001030AD00023A36063695B42A36119
:102E4800236943B910F08000BAD170BD810758BF1B
:102E58006369A360F4E70020F7E700BF0C000020D7
:102E68008C360008AC3600086C3600088A892DE9D3
:102E7800F041054610070C4658D44B68002B05DC7A
:102E88000B6C002B02DC0020BDE8F081E66A002E06
:102E9800F9D0002312F480522F682B6032D0606D75
:102EA800A3895A0705D56368C01A636B0BB1236CF5
:102EB800C01A00230246E66A216A2846B047431C26
:102EC800A38906D129681D292CD82A4ACA40D607C1
:102ED80028D500226260D9042269226004D5421CE8
:102EE80001D12B6803B96065616B2F600029CAD0D6
:102EF80004F14403994202D0284600F0D7F9002093
:102F08006063C1E7216A01232846B047411CC7D145
:102F18002B68002BC4D01D2B01D0162B01D12F609C
:102F2800B1E7A38943F04003A381ADE70F69002F00
:102F3800A9D093070E6808BF4B690F6018BF00231C
:102F4800A6EB07088B60B8F1000F9CDD216AA66A22
:102F580043463A462846B047002806DCA38943F092
:102F68004003A3814FF0FF308EE70744A8EB000829
:102F7800E9E700BF0100402038B50B6905460C465B
:102F880013B90025284638BD18B183690BB900F07C
:102F980087F8144B9C421BD16C68B4F90C30002B99
:102FA800EFD0626ED00704D4990502D4A06D00F06A
:102FB80015F928462146FFF759FF636EDA070546DB
:102FC800E0D4A3899B05DDD4A06D00F008F9D9E70A
:102FD800054B9C4201D1AC68DFE7044B9C4208BF1B
:102FE800EC68DAE78C360008AC3600086C36000866
:102FF800002310B50446C0E90033C0E904338360F8
:1030080081814366C2818361194608225C30FFF7DB
:10301800EFFD054B6362054BA362054BE362054B6D
:103028002462236310BD00BF213400084334000824
:103038007B3400089F340008014900F0AFB800BF96
:10304800812F000870B568224D1E55430E4605F1C4
:10305800740100F077F9044640B10021C0E9001678
:103068000C30A06005F16802FFF7C2FD204670BD74
:10307800014800F0B3B800BF2D020020014800F05D
:10308800AEB800BF2D020020014800F0A7B800BF6D
:103098002E020020014800F0A2B800BF2E02002036
:1030A80010B50446FFF7F0FFA3691BB1BDE8104057
:1030B800FFF7F0BFC4E912332365134B134A1B68AB
:1030C800A262A34204BF0123A361204600F020F8B6
:1030D8006060204600F01CF8A060204600F018F858
:1030E8000022E06004216068FFF782FFA0680122E7
:1030F8000921FFF77DFFE06802221221FFF778FF20
:103108000123A361D2E700BF6836000841300008F8
:10311800F8B50746FFF7ACFF1E4B1E68B36913B935
:103128003046FFF7BDFF4836D6E90134013B03D5E9
:1031380033680BB33668F7E7B4F90C50D5B9164BBA
:10314800E36004F15800656600F047F8FFF796FF62
:10315800C4E90155C4E904552560A561082229463A
:1031680004F15C00FFF744FDC4E90D55C4E91255AC
:103178002046F8BD6834D9E704213846FFF762FFD6
:10318800044630600028D5D1FFF778FF0C233B6058
:10319800EEE700BF683600080100FFFF2DE9F8439D
:1031A8000646884600F148040027D4E90195B9F19C
:1031B800010905D52468002CF7D13846BDE8F88305
:1031C800AB89012B07D9B5F90E30013303D0294655
:1031D8003046C04707436835E9E77047704770478E
:1031E80070B50E46B1F90E10002996B014461D466A
:1031F80008DAB6F90C3000222A601A0610D44FF407
:1032080080630EE06A4600F06DF90028F1DB019A50
:1032180002F47042A2F500535A425A412A60EEE77E
:1032280040230020236016B070BD00008B8973B561
:103238009D0706460C4607D504F147032360236122
:103248000123636102B070BD01AB6A46FFF7C8FF96
:1032580000990546304600F075F848B9B4F90C30C5
:103268009A05EFD423F0030343F00203A381E3E7B5
:103278000D4BB362A389206043F08003A381009BB8
:103288006361019B20615BB1B4F90E10304600F018
:103298003BF928B1A38923F0030343F00103A38179
:1032A800A0890543A581CDE74130000837B500293D
:1032B80044D051F8043C0190002BA1F10404B8BF9C
:1032C800E41800F043F91E4A0198136833B96360A3
:1032D800146003B0BDE8304000F03EB9A34208D9FD
:1032E800256861198B4201BF19685B68491921601B
:1032F800EDE71A465B680BB1A342FAD91168551875
:10330800A5420BD1246821445418A3421160E0D18E
:103318001C685B68536021441160DAE702D90C230A
:103328000360D6E7256861198B4204BF19685B689A
:10333800636004BF491921605460CAE703B030BD17
:1033480030020020F8B5CD1C25F0030508350C2DFA
:1033580038BF0C25002D064601DBA94203D90C23F2
:1033680033600020F8BD00F0F1F821490A681446DE
:103378009CB9204F3B6823B92146304600F03CF801
:1033880038602946304600F037F8431C23D10C2317
:103398003360304600F0E0F8E3E723685B1B17D49E
:1033A8000B2B03D923601C44256004E06368A24208
:1033B8000CBF0B605360304600F0CEF804F10B00F0
:1033C800231D20F00700C21ACCD01B1AA350C9E74E
:1033D80022466468CCE7C41C24F00304A042E3D06E
:1033E800211A304600F008F80130DDD1CFE700BFE0
:1033F800300200203402002038B5064D0023044670
:1034080008462B6000F0E8F8431C02D12B6803B192
:10341800236038BD3802002010B50C46B1F90E10F3
:1034280000F0A0F80028ABBF636DA3891B1823F434
:103438008053ACBF6365A38110BD2DE9F0411F46E1
:103448008B89DB0505460C46164605D5B1F90E10E5
:103458000223002200F068F8A389B4F90E1023F4BF
:103468008053A38132463B462846BDE8F04100F030
:1034780017B810B50C46B1F90E1000F055F8431CFA
:10348800A38915BF606523F4805343F48053A38157
:1034980018BFA38110BDB1F90E1000F013B80000D9
:1034A80038B5074D04460846114600222A601A46D8
:1034B800FDF73AF8431C02D12B6803B1236038BDED
:1034C8003802002038B5064D0023044608462B6014
:1034D80000F05AF8431C02D12B6803B1236038BDB1
:1034E8003802002038B5074D002304460846114627
:1034F8002B6000F051F8431C02D12B6803B1236004
:1035080038BD00BF3802002038B5064D00230446F8
:1035180008462B6000F048F8431C02D12B6803B121
:10352800236038BD3802002038B5074D04460846E8
:10353800114600222A601A4600F03EF8431C02D1C8
:103548002B6803B1236038BD380200200148FFF71B
:1035580045BE00BF2C0200200148FFF740BE00BF57
:103568002C02002038B5074D0446084611460022B3
:103578002A601A4600F028F8431C02D12B6803B1D0
:10358800236038BD38020020024B58221A604FF0E1
:10359800FF30704738020020024B58221A604FF063
:1035A800FF30704738020020024B58221A60002072
:1035B800704700BF38020020024B58221A604FF0B3
:1035C800FF30704738020020024B58221A604FF033
:1035D800FF30704738020020044A05491368002B61
:1035E80008BF0B4618441060184670473C0200207C
:1035F80040020020F8B500BFF8BC08BC9E467047E2
:0C360800F8B500BFF8BC08BC9E46704737
:10361400626F6F742068656C6C6F20776F72640DD5
:1036240000000000010002000400060008000A0077
:103634000C00100020004000800000010804020477
:10364400080101010101010307010000000000005D
:10365400000000000102030406070809000000003E
:10366400010203041000002000000000000000001C
:103674000000000000000000000000000000000046
:103684000000000000000000000000000000000036
:103694000000000000000000000000000000000026
:1036A4000000000000000000000000000000000016
:1036B4000000000000000000000000000000000006
:0836C4000000000000000000FE
:0836CC007CCBFF7F0100000030
:0436D400FD010008EC
:0436D800D90100080C
:1036DC0001000000100000000024F4001000002085
:1036EC00000000008C360008AC3600086C36000870
:1036FC0000000000000000000000000000000000BE
:10370C0000000000000000000000000000000000AD
:10371C00000000000000000000000000000000009D
:10372C00000000000000000000000000000000008D
:10373C00000000000000000000000000000000007D
:0400000508002B5D67
:00000001FF
